{
    "_format": "hh-sol-artifact-1",
    "contractName": "CricketDaoNFT",
    "sourceName": "contracts/Greeter.sol",
    "abi": [
        {
            "inputs": [],
            "stateMutability": "nonpayable",
            "type": "constructor"
        },
        {
            "anonymous": false,
            "inputs": [
                {
                    "indexed": true,
                    "internalType": "address",
                    "name": "owner",
                    "type": "address"
                },
                {
                    "indexed": true,
                    "internalType": "address",
                    "name": "approved",
                    "type": "address"
                },
                {
                    "indexed": true,
                    "internalType": "uint256",
                    "name": "tokenId",
                    "type": "uint256"
                }
            ],
            "name": "Approval",
            "type": "event"
        },
        {
            "anonymous": false,
            "inputs": [
                {
                    "indexed": true,
                    "internalType": "address",
                    "name": "owner",
                    "type": "address"
                },
                {
                    "indexed": true,
                    "internalType": "address",
                    "name": "operator",
                    "type": "address"
                },
                {
                    "indexed": false,
                    "internalType": "bool",
                    "name": "approved",
                    "type": "bool"
                }
            ],
            "name": "ApprovalForAll",
            "type": "event"
        },
        {
            "anonymous": false,
            "inputs": [
                {
                    "indexed": true,
                    "internalType": "address",
                    "name": "previousOwner",
                    "type": "address"
                },
                {
                    "indexed": true,
                    "internalType": "address",
                    "name": "newOwner",
                    "type": "address"
                }
            ],
            "name": "OwnershipTransferred",
            "type": "event"
        },
        {
            "anonymous": false,
            "inputs": [
                {
                    "indexed": true,
                    "internalType": "address",
                    "name": "from",
                    "type": "address"
                },
                {
                    "indexed": true,
                    "internalType": "address",
                    "name": "to",
                    "type": "address"
                },
                {
                    "indexed": true,
                    "internalType": "uint256",
                    "name": "tokenId",
                    "type": "uint256"
                }
            ],
            "name": "Transfer",
            "type": "event"
        },
        {
            "inputs": [
                {
                    "internalType": "address",
                    "name": "to",
                    "type": "address"
                },
                {
                    "internalType": "uint256",
                    "name": "tokenId",
                    "type": "uint256"
                }
            ],
            "name": "approve",
            "outputs": [],
            "stateMutability": "nonpayable",
            "type": "function"
        },
        {
            "inputs": [
                {
                    "internalType": "address",
                    "name": "owner",
                    "type": "address"
                }
            ],
            "name": "balanceOf",
            "outputs": [
                {
                    "internalType": "uint256",
                    "name": "",
                    "type": "uint256"
                }
            ],
            "stateMutability": "view",
            "type": "function"
        },
        {
            "inputs": [
                {
                    "internalType": "uint256",
                    "name": "tokenId",
                    "type": "uint256"
                }
            ],
            "name": "claim",
            "outputs": [],
            "stateMutability": "nonpayable",
            "type": "function"
        },
        {
            "inputs": [
                {
                    "internalType": "uint256",
                    "name": "tokenId",
                    "type": "uint256"
                }
            ],
            "name": "getAllRounder",
            "outputs": [
                {
                    "internalType": "string",
                    "name": "",
                    "type": "string"
                }
            ],
            "stateMutability": "view",
            "type": "function"
        },
        {
            "inputs": [
                {
                    "internalType": "uint256",
                    "name": "tokenId",
                    "type": "uint256"
                }
            ],
            "name": "getApproved",
            "outputs": [
                {
                    "internalType": "address",
                    "name": "",
                    "type": "address"
                }
            ],
            "stateMutability": "view",
            "type": "function"
        },
        {
            "inputs": [
                {
                    "internalType": "uint256",
                    "name": "tokenId",
                    "type": "uint256"
                }
            ],
            "name": "getBatsman",
            "outputs": [
                {
                    "internalType": "string",
                    "name": "",
                    "type": "string"
                }
            ],
            "stateMutability": "view",
            "type": "function"
        },
        {
            "inputs": [
                {
                    "internalType": "uint256",
                    "name": "tokenId",
                    "type": "uint256"
                }
            ],
            "name": "getBowler",
            "outputs": [
                {
                    "internalType": "string",
                    "name": "",
                    "type": "string"
                }
            ],
            "stateMutability": "view",
            "type": "function"
        },
        {
            "inputs": [
                {
                    "internalType": "uint256",
                    "name": "tokenId",
                    "type": "uint256"
                }
            ],
            "name": "getCities",
            "outputs": [
                {
                    "internalType": "string",
                    "name": "",
                    "type": "string"
                }
            ],
            "stateMutability": "view",
            "type": "function"
        },
        {
            "inputs": [
                {
                    "internalType": "uint256",
                    "name": "tokenId",
                    "type": "uint256"
                }
            ],
            "name": "getFieldPosition",
            "outputs": [
                {
                    "internalType": "string",
                    "name": "",
                    "type": "string"
                }
            ],
            "stateMutability": "view",
            "type": "function"
        },
        {
            "inputs": [
                {
                    "internalType": "uint256",
                    "name": "tokenId",
                    "type": "uint256"
                }
            ],
            "name": "getFormat",
            "outputs": [
                {
                    "internalType": "string",
                    "name": "",
                    "type": "string"
                }
            ],
            "stateMutability": "view",
            "type": "function"
        },
        {
            "inputs": [
                {
                    "internalType": "uint256",
                    "name": "tokenId",
                    "type": "uint256"
                }
            ],
            "name": "getPlayerType",
            "outputs": [
                {
                    "internalType": "string",
                    "name": "",
                    "type": "string"
                }
            ],
            "stateMutability": "view",
            "type": "function"
        },
        {
            "inputs": [
                {
                    "internalType": "uint256",
                    "name": "tokenId",
                    "type": "uint256"
                }
            ],
            "name": "getWorldCups",
            "outputs": [
                {
                    "internalType": "string",
                    "name": "",
                    "type": "string"
                }
            ],
            "stateMutability": "view",
            "type": "function"
        },
        {
            "inputs": [
                {
                    "internalType": "address",
                    "name": "owner",
                    "type": "address"
                },
                {
                    "internalType": "address",
                    "name": "operator",
                    "type": "address"
                }
            ],
            "name": "isApprovedForAll",
            "outputs": [
                {
                    "internalType": "bool",
                    "name": "",
                    "type": "bool"
                }
            ],
            "stateMutability": "view",
            "type": "function"
        },
        {
            "inputs": [],
            "name": "name",
            "outputs": [
                {
                    "internalType": "string",
                    "name": "",
                    "type": "string"
                }
            ],
            "stateMutability": "view",
            "type": "function"
        },
        {
            "inputs": [],
            "name": "owner",
            "outputs": [
                {
                    "internalType": "address",
                    "name": "",
                    "type": "address"
                }
            ],
            "stateMutability": "view",
            "type": "function"
        },
        {
            "inputs": [
                {
                    "internalType": "uint256",
                    "name": "tokenId",
                    "type": "uint256"
                }
            ],
            "name": "ownerClaim",
            "outputs": [],
            "stateMutability": "nonpayable",
            "type": "function"
        },
        {
            "inputs": [
                {
                    "internalType": "uint256",
                    "name": "tokenId",
                    "type": "uint256"
                }
            ],
            "name": "ownerOf",
            "outputs": [
                {
                    "internalType": "address",
                    "name": "",
                    "type": "address"
                }
            ],
            "stateMutability": "view",
            "type": "function"
        },
        {
            "inputs": [],
            "name": "renounceOwnership",
            "outputs": [],
            "stateMutability": "nonpayable",
            "type": "function"
        },
        {
            "inputs": [
                {
                    "internalType": "address",
                    "name": "from",
                    "type": "address"
                },
                {
                    "internalType": "address",
                    "name": "to",
                    "type": "address"
                },
                {
                    "internalType": "uint256",
                    "name": "tokenId",
                    "type": "uint256"
                }
            ],
            "name": "safeTransferFrom",
            "outputs": [],
            "stateMutability": "nonpayable",
            "type": "function"
        },
        {
            "inputs": [
                {
                    "internalType": "address",
                    "name": "from",
                    "type": "address"
                },
                {
                    "internalType": "address",
                    "name": "to",
                    "type": "address"
                },
                {
                    "internalType": "uint256",
                    "name": "tokenId",
                    "type": "uint256"
                },
                {
                    "internalType": "bytes",
                    "name": "_data",
                    "type": "bytes"
                }
            ],
            "name": "safeTransferFrom",
            "outputs": [],
            "stateMutability": "nonpayable",
            "type": "function"
        },
        {
            "inputs": [
                {
                    "internalType": "address",
                    "name": "operator",
                    "type": "address"
                },
                {
                    "internalType": "bool",
                    "name": "approved",
                    "type": "bool"
                }
            ],
            "name": "setApprovalForAll",
            "outputs": [],
            "stateMutability": "nonpayable",
            "type": "function"
        },
        {
            "inputs": [
                {
                    "internalType": "bytes4",
                    "name": "interfaceId",
                    "type": "bytes4"
                }
            ],
            "name": "supportsInterface",
            "outputs": [
                {
                    "internalType": "bool",
                    "name": "",
                    "type": "bool"
                }
            ],
            "stateMutability": "view",
            "type": "function"
        },
        {
            "inputs": [],
            "name": "symbol",
            "outputs": [
                {
                    "internalType": "string",
                    "name": "",
                    "type": "string"
                }
            ],
            "stateMutability": "view",
            "type": "function"
        },
        {
            "inputs": [
                {
                    "internalType": "uint256",
                    "name": "index",
                    "type": "uint256"
                }
            ],
            "name": "tokenByIndex",
            "outputs": [
                {
                    "internalType": "uint256",
                    "name": "",
                    "type": "uint256"
                }
            ],
            "stateMutability": "view",
            "type": "function"
        },
        {
            "inputs": [
                {
                    "internalType": "address",
                    "name": "owner",
                    "type": "address"
                },
                {
                    "internalType": "uint256",
                    "name": "index",
                    "type": "uint256"
                }
            ],
            "name": "tokenOfOwnerByIndex",
            "outputs": [
                {
                    "internalType": "uint256",
                    "name": "",
                    "type": "uint256"
                }
            ],
            "stateMutability": "view",
            "type": "function"
        },
        {
            "inputs": [
                {
                    "internalType": "uint256",
                    "name": "tokenId",
                    "type": "uint256"
                }
            ],
            "name": "tokenURI",
            "outputs": [
                {
                    "internalType": "string",
                    "name": "",
                    "type": "string"
                }
            ],
            "stateMutability": "view",
            "type": "function"
        },
        {
            "inputs": [],
            "name": "totalSupply",
            "outputs": [
                {
                    "internalType": "uint256",
                    "name": "",
                    "type": "uint256"
                }
            ],
            "stateMutability": "view",
            "type": "function"
        },
        {
            "inputs": [
                {
                    "internalType": "address",
                    "name": "from",
                    "type": "address"
                },
                {
                    "internalType": "address",
                    "name": "to",
                    "type": "address"
                },
                {
                    "internalType": "uint256",
                    "name": "tokenId",
                    "type": "uint256"
                }
            ],
            "name": "transferFrom",
            "outputs": [],
            "stateMutability": "nonpayable",
            "type": "function"
        },
        {
            "inputs": [
                {
                    "internalType": "address",
                    "name": "newOwner",
                    "type": "address"
                }
            ],
            "name": "transferOwnership",
            "outputs": [],
            "stateMutability": "nonpayable",
            "type": "function"
        }
    ],
    "bytecode": "0x608060405260405180606001604052806040518060400160405280600481526020017f546573740000000000000000000000000000000000000000000000000000000081525081526020016040518060400160405280600381526020017f4f4449000000000000000000000000000000000000000000000000000000000081525081526020016040518060400160405280600381526020017f5432300000000000000000000000000000000000000000000000000000000000815250815250600c906003620000d092919062001fd9565b50604051806101e001604052806040518060400160405280600981526020017f41686d656461626164000000000000000000000000000000000000000000000081525081526020016040518060400160405280600981526020017f4d656c626f75726e65000000000000000000000000000000000000000000000081525081526020016040518060400160405280600781526020017f4b6f6c6b6174610000000000000000000000000000000000000000000000000081525081526020016040518060400160405280600681526020017f526169707572000000000000000000000000000000000000000000000000000081525081526020016040518060400160405280600581526020017f506572746800000000000000000000000000000000000000000000000000000081525081526020016040518060400160405280600981526020017f487964657261626164000000000000000000000000000000000000000000000081525081526020016040518060400160405280601281526020017f546869727576616e616e746861707572616d000000000000000000000000000081525081526020016040518060400160405280600881526020017f4164656c6169646500000000000000000000000000000000000000000000000081525081526020016040518060400160405280600781526020017f4368656e6e61690000000000000000000000000000000000000000000000000081525081526020016040518060400160405280600681526020017f52616e636869000000000000000000000000000000000000000000000000000081525081526020016040518060400160405280600781526020017f4c75636b6e6f770000000000000000000000000000000000000000000000000081525081526020016040518060400160405280600881526020017f426c75656669736800000000000000000000000000000000000000000000000081525081526020016040518060400160405280600981526020017f4d656c626f75726e65000000000000000000000000000000000000000000000081525081526020016040518060400160405280600681526020017f5379646e6579000000000000000000000000000000000000000000000000000081525081526020016040518060400160405280600681526020017f4e61677075720000000000000000000000000000000000000000000000000000815250815250600d90600f6200046292919062002040565b5060405180606001604052806040518060400160405280600781526020017f426174736d616e0000000000000000000000000000000000000000000000000081525081526020016040518060400160405280600681526020017f426f776c6572000000000000000000000000000000000000000000000000000081525081526020016040518060400160405280600b81526020017f416c6c2d726f756e646572000000000000000000000000000000000000000000815250815250600e9060036200052f92919062001fd9565b506040518061028001604052806040518060400160405280600b81526020017f5669726174204b6f686c6900000000000000000000000000000000000000000081525081526020016040518060400160405280600c81526020017f566976205269636861726473000000000000000000000000000000000000000081525081526020016040518060400160405280600c81526020017f5a6168656572204162626173000000000000000000000000000000000000000081525081526020016040518060400160405280600d81526020017f47726567204368617070656c6c0000000000000000000000000000000000000081525081526020016040518060400160405280600b81526020017f446176696420476f77657200000000000000000000000000000000000000000081525081526020016040518060400160405280600a81526020017f4465616e204a6f6e65730000000000000000000000000000000000000000000081525081526020016040518060400160405280600d81526020017f4a61766564204d69616e6461640000000000000000000000000000000000000081525081526020016040518060400160405280600a81526020017f427269616e204c6172610000000000000000000000000000000000000000000081525081526020016040518060400160405280600e81526020017f41422064652056696c6c6965727300000000000000000000000000000000000081525081526020016040518060400160405280600b81526020017f48617368696d20416d6c6100000000000000000000000000000000000000000081525081526020016040518060400160405280600e81526020017f4465736d6f6e64204861796e657300000000000000000000000000000000000081525081526020016040518060400160405280600c81526020017f47617279204b69727374656e000000000000000000000000000000000000000081525081526020016040518060400160405280600a81526020017f416c6c616e204c616d620000000000000000000000000000000000000000000081525081526020016040518060400160405280601081526020017f476f72646f6e20477265656e696467650000000000000000000000000000000081525081526020016040518060400160405280601081526020017f53616368696e2054656e64756c6b61720000000000000000000000000000000081525081526020016040518060400160405280600d81526020017f4d69636861656c20426576616e0000000000000000000000000000000000000081525081526020016040518060400160405280600c81526020017f526f68697420536861726d61000000000000000000000000000000000000000081525081526020016040518060400160405280600c81526020017f4461766964205761726e6572000000000000000000000000000000000000000081525081526020016040518060400160405280600a81526020017f426162617220417a616d0000000000000000000000000000000000000000000081525081526020016040518060400160405280600e81526020017f4b65706c65722057657373656c73000000000000000000000000000000000000815250815250600f906014620009e8929190620020a7565b506040518061028001604052806040518060400160405280600b81526020017f4a6f656c204761726e657200000000000000000000000000000000000000000081525081526020016040518060400160405280600e81526020017f52696368617264204861646c656500000000000000000000000000000000000081525081526020016040518060400160405280600d81526020017f536861756e20506f6c6c6f636b0000000000000000000000000000000000000081525081526020016040518060400160405280601381526020017f4d757474696168204d7572616c69646172616e0000000000000000000000000081525081526020016040518060400160405280600d81526020017f476c656e6e204d6347726174680000000000000000000000000000000000000081525081526020016040518060400160405280600e81526020017f4577656e20436861746669656c6400000000000000000000000000000000000081525081526020016040518060400160405280601081526020017f4d616c636f6c6d204d61727368616c6c0000000000000000000000000000000081525081526020016040518060400160405280600d81526020017f44656e6e6973204c696c6c65650000000000000000000000000000000000000081525081526020016040518060400160405280600e81526020017f437572746c7920416d62726f736500000000000000000000000000000000000081525081526020016040518060400160405280600f81526020017f4d69636861656c20486f6c64696e67000000000000000000000000000000000081525081526020016040518060400160405280600a81526020017f426f622057696c6c69730000000000000000000000000000000000000000000081525081526020016040518060400160405280600d81526020017f4368616d696e646120566161730000000000000000000000000000000000000081525081526020016040518060400160405280600981526020017f4272657474204c6565000000000000000000000000000000000000000000000081525081526020016040518060400160405280600e81526020017f4d616e696e6465722053696e676800000000000000000000000000000000000081525081526020016040518060400160405280600b81526020017f576173696d20416b72616d00000000000000000000000000000000000000000081525081526020016040518060400160405280600c81526020017f416e647920526f6265727473000000000000000000000000000000000000000081525081526020016040518060400160405280600981526020017f4b6170696c20446576000000000000000000000000000000000000000000000081525081526020016040518060400160405280600c81526020017f47656f6666204c6177736f6e000000000000000000000000000000000000000081525081526020016040518060400160405280600e81526020017f4a6173707269742042756d72616800000000000000000000000000000000000081525081526020016040518060400160405280600f81526020017f4a61736f6e2047696c6c65737069650000000000000000000000000000000000815250815250601090601462000ea1929190620020a7565b506040518061028001604052806040518060400160405280600981526020017f4b6170696c20446576000000000000000000000000000000000000000000000081525081526020016040518060400160405280600d81526020017f47726567204368617070656c6c0000000000000000000000000000000000000081525081526020016040518060400160405280600f81526020017f416e6472657720466c696e746f6666000000000000000000000000000000000081525081526020016040518060400160405280600c81526020017f566976205269636861726473000000000000000000000000000000000000000081525081526020016040518060400160405280600e81526020017f4c616e6365204b6c7573656e657200000000000000000000000000000000000081525081526020016040518060400160405280600b81526020017f4368726973204761796c6500000000000000000000000000000000000000000081525081526020016040518060400160405280600e81526020017f4a616371756573204b616c6c697300000000000000000000000000000000000081525081526020016040518060400160405280600b81526020017f537465766520576175676800000000000000000000000000000000000000000081525081526020016040518060400160405280600d81526020017f536861756e20506f6c6c6f636b0000000000000000000000000000000000000081525081526020016040518060400160405280600a81526020017f496d72616e204b68616e0000000000000000000000000000000000000000000081525081526020016040518060400160405280600c81526020017f526176692053686173747269000000000000000000000000000000000000000081525081526020016040518060400160405280600d81526020017f48616e7369652043726f6e6a650000000000000000000000000000000000000081525081526020016040518060400160405280600e81526020017f52696368617264204861646c656500000000000000000000000000000000000081525081526020016040518060400160405280600a81526020017f49616e20426f7468616d0000000000000000000000000000000000000000000081525081526020016040518060400160405280600c81526020017f4c616e636520436169726e73000000000000000000000000000000000000000081525081526020016040518060400160405280601181526020017f53616e617468204a61796173757269796100000000000000000000000000000081525081526020016040518060400160405280600b81526020017f4361726c20486f6f70657200000000000000000000000000000000000000000081525081526020016040518060400160405280600f81526020017f5368616b696220416c20486173616e000000000000000000000000000000000081525081526020016040518060400160405280600c81526020017f5368616e6520576174736f6e000000000000000000000000000000000000000081525081526020016040518060400160405280600e81526020017f416e67656c6f204d61746865777300000000000000000000000000000000000081525081525060119060146200135a929190620020a7565b50604051806101a001604052806040518060400160405280600481526020017f313937350000000000000000000000000000000000000000000000000000000081525081526020016040518060400160405280600481526020017f313937390000000000000000000000000000000000000000000000000000000081525081526020016040518060400160405280600481526020017f313938330000000000000000000000000000000000000000000000000000000081525081526020016040518060400160405280600481526020017f313938370000000000000000000000000000000000000000000000000000000081525081526020016040518060400160405280600481526020017f313939320000000000000000000000000000000000000000000000000000000081525081526020016040518060400160405280600481526020017f313939360000000000000000000000000000000000000000000000000000000081525081526020016040518060400160405280600481526020017f313939390000000000000000000000000000000000000000000000000000000081525081526020016040518060400160405280600481526020017f323030330000000000000000000000000000000000000000000000000000000081525081526020016040518060400160405280600481526020017f323030370000000000000000000000000000000000000000000000000000000081525081526020016040518060400160405280600481526020017f323031310000000000000000000000000000000000000000000000000000000081525081526020016040518060400160405280600481526020017f323031350000000000000000000000000000000000000000000000000000000081525081526020016040518060400160405280600481526020017f323031390000000000000000000000000000000000000000000000000000000081525081526020016040518060400160405280600481526020017f3230323300000000000000000000000000000000000000000000000000000000815250815250601290600d620016769291906200210e565b506040518061042001604052806040518060400160405280600581526020017f536c69707300000000000000000000000000000000000000000000000000000081525081526020016040518060400160405280600581526020017f47756c6c7900000000000000000000000000000000000000000000000000000081525081526020016040518060400160405280600b81526020017f53696c6c7920506f696e7400000000000000000000000000000000000000000081525081526020016040518060400160405280600d81526020017f53696c6c79204d6964204f66660000000000000000000000000000000000000081525081526020016040518060400160405280600681526020017f426f776c6572000000000000000000000000000000000000000000000000000081525081526020016040518060400160405280600c81526020017f53696c6c79204d6964204f6e000000000000000000000000000000000000000081525081526020016040518060400160405280600981526020017f53686f7274204c6567000000000000000000000000000000000000000000000081525081526020016040518060400160405280600981526020017f4c65672047756c6c79000000000000000000000000000000000000000000000081525081526020016040518060400160405280600881526020017f4c656720536c697000000000000000000000000000000000000000000000000081525081526020016040518060400160405280600d81526020017f5769636b6574204b65657065720000000000000000000000000000000000000081525081526020016040518060400160405280600881526020017f466c7920536c697000000000000000000000000000000000000000000000000081525081526020016040518060400160405280600e81526020017f4261636b7761726420506f696e7400000000000000000000000000000000000081525081526020016040518060400160405280600581526020017f506f696e7400000000000000000000000000000000000000000000000000000081525081526020016040518060400160405280600581526020017f436f76657200000000000000000000000000000000000000000000000000000081525081526020016040518060400160405280600b81526020017f457874726120436f76657200000000000000000000000000000000000000000081525081526020016040518060400160405280600781526020017f4d6964204f66660000000000000000000000000000000000000000000000000081525081526020016040518060400160405280600681526020017f4d6964204f6e000000000000000000000000000000000000000000000000000081525081526020016040518060400160405280600a81526020017f4d6964205769636b65740000000000000000000000000000000000000000000081525081526020016040518060400160405280600a81526020017f537175617265204c65670000000000000000000000000000000000000000000081525081526020016040518060400160405280601381526020017f4261636b7761726420537175617265204c65670000000000000000000000000081525081526020016040518060400160405280600881526020017f46696e65204c656700000000000000000000000000000000000000000000000081525081526020016040518060400160405280600981526020017f5468697264204d616e000000000000000000000000000000000000000000000081525081526020016040518060400160405280601381526020017f44656570204261636b7761726420506f696e740000000000000000000000000081525081526020016040518060400160405280600a81526020017f4465657020506f696e740000000000000000000000000000000000000000000081525081526020016040518060400160405280600a81526020017f4465657020436f7665720000000000000000000000000000000000000000000081525081526020016040518060400160405280601081526020017f4465657020457874726120436f7665720000000000000000000000000000000081525081526020016040518060400160405280600881526020017f4c6f6e67204f666600000000000000000000000000000000000000000000000081525081526020016040518060400160405280600781526020017f4c6f6e67204f6e0000000000000000000000000000000000000000000000000081525081526020016040518060400160405280600a81526020017f436f7720436f726e65720000000000000000000000000000000000000000000081525081526020016040518060400160405280600f81526020017f44656570204d6964205769636b6574000000000000000000000000000000000081525081526020016040518060400160405280600f81526020017f4465657020537175617265204c6567000000000000000000000000000000000081525081526020016040518060400160405280600881526020017f4c6f6e67204c656700000000000000000000000000000000000000000000000081525081526020016040518060400160405280600d81526020017f446565702046696e65204c656700000000000000000000000000000000000000815250815250601390602162001e2e92919062002175565b5034801562001e3c57600080fd5b506040518060400160405280600b81526020017f437269636b65742044414f0000000000000000000000000000000000000000008152506040518060400160405280600481526020017f43524b5400000000000000000000000000000000000000000000000000000000815250816000908051906020019062001ec1929190620021dc565b50806001908051906020019062001eda929190620021dc565b5050506001600a8190555062001f0562001ef962001f0b60201b60201c565b62001f1360201b60201c565b6200235f565b600033905090565b6000600b60009054906101000a900473ffffffffffffffffffffffffffffffffffffffff16905081600b60006101000a81548173ffffffffffffffffffffffffffffffffffffffff021916908373ffffffffffffffffffffffffffffffffffffffff1602179055508173ffffffffffffffffffffffffffffffffffffffff168173ffffffffffffffffffffffffffffffffffffffff167f8be0079c531659141344cd1fd0a4f28419497f9722a3daafe3b4186f6b6457e060405160405180910390a35050565b8280548282559060005260206000209081019282156200202d579160200282015b828111156200202c5782518290805190602001906200201b929190620021dc565b509160200191906001019062001ffa565b5b5090506200203c91906200226d565b5090565b82805482825590600052602060002090810192821562002094579160200282015b828111156200209357825182908051906020019062002082929190620021dc565b509160200191906001019062002061565b5b509050620020a391906200226d565b5090565b828054828255906000526020600020908101928215620020fb579160200282015b82811115620020fa578251829080519060200190620020e9929190620021dc565b5091602001919060010190620020c8565b5b5090506200210a91906200226d565b5090565b82805482825590600052602060002090810192821562002162579160200282015b828111156200216157825182908051906020019062002150929190620021dc565b50916020019190600101906200212f565b5b5090506200217191906200226d565b5090565b828054828255906000526020600020908101928215620021c9579160200282015b82811115620021c8578251829080519060200190620021b7929190620021dc565b509160200191906001019062002196565b5b509050620021d891906200226d565b5090565b828054620021ea90620022fa565b90600052602060002090601f0160209004810192826200220e57600085556200225a565b82601f106200222957805160ff19168380011785556200225a565b828001600101855582156200225a579182015b82811115620022595782518255916020019190600101906200223c565b5b50905062002269919062002295565b5090565b5b80821115620022915760008181620022879190620022b4565b506001016200226e565b5090565b5b80821115620022b057600081600090555060010162002296565b5090565b508054620022c290620022fa565b6000825580601f10620022d65750620022f7565b601f016020900490600052602060002090810190620022f6919062002295565b5b50565b600060028204905060018216806200231357607f821691505b602082108114156200232a576200232962002330565b5b50919050565b7f4e487b7100000000000000000000000000000000000000000000000000000000600052602260045260246000fd5b615349806200236f6000396000f3fe608060405234801561001057600080fd5b50600436106101cf5760003560e01c8063715018a611610104578063a45bcc37116100a2578063d66e2cae11610071578063d66e2cae1461058a578063e3342de0146105ba578063e985e9c5146105ea578063f2fde38b1461061a576101cf565b8063a45bcc37146104de578063b88d4fde1461050e578063c75a084a1461052a578063c87b56dd1461055a576101cf565b80638ee7f6cb116100de5780638ee7f6cb14610444578063902248521461047457806395d89b41146104a4578063a22cb465146104c2576101cf565b8063715018a6146103ec5780637fe4faf8146103f65780638da5cb5b14610426576101cf565b8063379607f511610171578063434f48c41161014b578063434f48c4146103405780634f6ccce71461035c5780636352211e1461038c57806370a08231146103bc576101cf565b8063379607f5146102d85780633e858b3e146102f457806342842e0e14610324576101cf565b8063095ea7b3116101ad578063095ea7b31461025257806318160ddd1461026e57806323b872dd1461028c5780632f745c59146102a8576101cf565b806301ffc9a7146101d457806306fdde0314610204578063081812fc14610222575b600080fd5b6101ee60048036038101906101e99190613cd2565b610636565b6040516101fb9190614363565b60405180910390f35b61020c6106b0565b604051610219919061437e565b60405180910390f35b61023c60048036038101906102379190613d24565b610742565b60405161024991906142fc565b60405180910390f35b61026c60048036038101906102679190613c96565b6107c7565b005b6102766108df565b6040516102839190614600565b60405180910390f35b6102a660048036038101906102a19190613b90565b6108ec565b005b6102c260048036038101906102bd9190613c96565b61094c565b6040516102cf9190614600565b60405180910390f35b6102f260048036038101906102ed9190613d24565b6109f1565b005b61030e60048036038101906103099190613d24565b610aab565b60405161031b919061437e565b60405180910390f35b61033e60048036038101906103399190613b90565b610bc5565b005b61035a60048036038101906103559190613d24565b610be5565b005b61037660048036038101906103719190613d24565b610d1c565b6040516103839190614600565b60405180910390f35b6103a660048036038101906103a19190613d24565b610db3565b6040516103b391906142fc565b60405180910390f35b6103d660048036038101906103d19190613b2b565b610e65565b6040516103e39190614600565b60405180910390f35b6103f4610f1d565b005b610410600480360381019061040b9190613d24565b610fa5565b60405161041d919061437e565b60405180910390f35b61042e6110bf565b60405161043b91906142fc565b60405180910390f35b61045e60048036038101906104599190613d24565b6110e9565b60405161046b919061437e565b60405180910390f35b61048e60048036038101906104899190613d24565b611203565b60405161049b919061437e565b60405180910390f35b6104ac61131d565b6040516104b9919061437e565b60405180910390f35b6104dc60048036038101906104d79190613c5a565b6113af565b005b6104f860048036038101906104f39190613d24565b611530565b604051610505919061437e565b60405180910390f35b61052860048036038101906105239190613bdf565b61164a565b005b610544600480360381019061053f9190613d24565b6116ac565b604051610551919061437e565b60405180910390f35b610574600480360381019061056f9190613d24565b6117c6565b604051610581919061437e565b60405180910390f35b6105a4600480360381019061059f9190613d24565b6122e8565b6040516105b1919061437e565b60405180910390f35b6105d460048036038101906105cf9190613d24565b612402565b6040516105e1919061437e565b60405180910390f35b61060460048036038101906105ff9190613b54565b61251c565b6040516106119190614363565b60405180910390f35b610634600480360381019061062f9190613b2b565b6125b0565b005b60007f780e9d63000000000000000000000000000000000000000000000000000000007bffffffffffffffffffffffffffffffffffffffffffffffffffffffff1916827bffffffffffffffffffffffffffffffffffffffffffffffffffffffff191614806106a957506106a8826126a8565b5b9050919050565b6060600080546106bf9061487f565b80601f01602080910402602001604051908101604052809291908181526020018280546106eb9061487f565b80156107385780601f1061070d57610100808354040283529160200191610738565b820191906000526020600020905b81548152906001019060200180831161071b57829003601f168201915b5050505050905090565b600061074d8261278a565b61078c576040517f08c379a000000000000000000000000000000000000000000000000000000000815260040161078390614500565b60405180910390fd5b6004600083815260200190815260200160002060009054906101000a900473ffffffffffffffffffffffffffffffffffffffff169050919050565b60006107d282610db3565b90508073ffffffffffffffffffffffffffffffffffffffff168373ffffffffffffffffffffffffffffffffffffffff161415610843576040517f08c379a000000000000000000000000000000000000000000000000000000000815260040161083a90614580565b60405180910390fd5b8073ffffffffffffffffffffffffffffffffffffffff166108626127f6565b73ffffffffffffffffffffffffffffffffffffffff16148061089157506108908161088b6127f6565b61251c565b5b6108d0576040517f08c379a00000000000000000000000000000000000000000000000000000000081526004016108c790614480565b60405180910390fd5b6108da83836127fe565b505050565b6000600880549050905090565b6108fd6108f76127f6565b826128b7565b61093c576040517f08c379a0000000000000000000000000000000000000000000000000000000008152600401610933906145a0565b60405180910390fd5b610947838383612995565b505050565b600061095783610e65565b8210610998576040517f08c379a000000000000000000000000000000000000000000000000000000000815260040161098f906143a0565b60405180910390fd5b600660008473ffffffffffffffffffffffffffffffffffffffff1673ffffffffffffffffffffffffffffffffffffffff168152602001908152602001600020600083815260200190815260200160002054905092915050565b6002600a541415610a37576040517f08c379a0000000000000000000000000000000000000000000000000000000008152600401610a2e906145e0565b60405180910390fd5b6002600a81905550600081118015610a505750611e6281105b610a8f576040517f08c379a0000000000000000000000000000000000000000000000000000000008152600401610a8690614540565b60405180910390fd5b610aa0610a9a6127f6565b82612bf1565b6001600a8190555050565b6060610bbe826040518060400160405280600d81526020017f4649454c44504f534954494f4e000000000000000000000000000000000000008152506013805480602002602001604051908101604052809291908181526020016000905b82821015610bb5578382906000526020600020018054610b289061487f565b80601f0160208091040260200160405190810160405280929190818152602001828054610b549061487f565b8015610ba15780601f10610b7657610100808354040283529160200191610ba1565b820191906000526020600020905b815481529060010190602001808311610b8457829003601f168201915b505050505081526020019060010190610b09565b50505050612c0f565b9050919050565b610be08383836040518060200160405280600081525061164a565b505050565b6002600a541415610c2b576040517f08c379a0000000000000000000000000000000000000000000000000000000008152600401610c22906145e0565b60405180910390fd5b6002600a81905550610c3b6127f6565b73ffffffffffffffffffffffffffffffffffffffff16610c596110bf565b73ffffffffffffffffffffffffffffffffffffffff1614610caf576040517f08c379a0000000000000000000000000000000000000000000000000000000008152600401610ca690614520565b60405180910390fd5b611e6181118015610cc15750611f4181105b610d00576040517f08c379a0000000000000000000000000000000000000000000000000000000008152600401610cf790614540565b60405180910390fd5b610d11610d0b6110bf565b82612bf1565b6001600a8190555050565b6000610d266108df565b8210610d67576040517f08c379a0000000000000000000000000000000000000000000000000000000008152600401610d5e906145c0565b60405180910390fd5b60088281548110610da1577f4e487b7100000000000000000000000000000000000000000000000000000000600052603260045260246000fd5b90600052602060002001549050919050565b6000806002600084815260200190815260200160002060009054906101000a900473ffffffffffffffffffffffffffffffffffffffff169050600073ffffffffffffffffffffffffffffffffffffffff168173ffffffffffffffffffffffffffffffffffffffff161415610e5c576040517f08c379a0000000000000000000000000000000000000000000000000000000008152600401610e53906144c0565b60405180910390fd5b80915050919050565b60008073ffffffffffffffffffffffffffffffffffffffff168273ffffffffffffffffffffffffffffffffffffffff161415610ed6576040517f08c379a0000000000000000000000000000000000000000000000000000000008152600401610ecd906144a0565b60405180910390fd5b600360008373ffffffffffffffffffffffffffffffffffffffff1673ffffffffffffffffffffffffffffffffffffffff168152602001908152602001600020549050919050565b610f256127f6565b73ffffffffffffffffffffffffffffffffffffffff16610f436110bf565b73ffffffffffffffffffffffffffffffffffffffff1614610f99576040517f08c379a0000000000000000000000000000000000000000000000000000000008152600401610f9090614520565b60405180910390fd5b610fa36000612ca4565b565b60606110b8826040518060400160405280600681526020017f4349544945530000000000000000000000000000000000000000000000000000815250600d805480602002602001604051908101604052809291908181526020016000905b828210156110af5783829060005260206000200180546110229061487f565b80601f016020809104026020016040519081016040528092919081815260200182805461104e9061487f565b801561109b5780601f106110705761010080835404028352916020019161109b565b820191906000526020600020905b81548152906001019060200180831161107e57829003601f168201915b505050505081526020019060010190611003565b50505050612c0f565b9050919050565b6000600b60009054906101000a900473ffffffffffffffffffffffffffffffffffffffff16905090565b60606111fc826040518060400160405280600681526020017f464f524d41540000000000000000000000000000000000000000000000000000815250600c805480602002602001604051908101604052809291908181526020016000905b828210156111f35783829060005260206000200180546111669061487f565b80601f01602080910402602001604051908101604052809291908181526020018280546111929061487f565b80156111df5780601f106111b4576101008083540402835291602001916111df565b820191906000526020600020905b8154815290600101906020018083116111c257829003601f168201915b505050505081526020019060010190611147565b50505050612c0f565b9050919050565b6060611316826040518060400160405280600a81526020017f414c4c524f554e444552000000000000000000000000000000000000000000008152506011805480602002602001604051908101604052809291908181526020016000905b8282101561130d5783829060005260206000200180546112809061487f565b80601f01602080910402602001604051908101604052809291908181526020018280546112ac9061487f565b80156112f95780601f106112ce576101008083540402835291602001916112f9565b820191906000526020600020905b8154815290600101906020018083116112dc57829003601f168201915b505050505081526020019060010190611261565b50505050612c0f565b9050919050565b60606001805461132c9061487f565b80601f01602080910402602001604051908101604052809291908181526020018280546113589061487f565b80156113a55780601f1061137a576101008083540402835291602001916113a5565b820191906000526020600020905b81548152906001019060200180831161138857829003601f168201915b5050505050905090565b6113b76127f6565b73ffffffffffffffffffffffffffffffffffffffff168273ffffffffffffffffffffffffffffffffffffffff161415611425576040517f08c379a000000000000000000000000000000000000000000000000000000000815260040161141c90614440565b60405180910390fd5b80600560006114326127f6565b73ffffffffffffffffffffffffffffffffffffffff1673ffffffffffffffffffffffffffffffffffffffff16815260200190815260200160002060008473ffffffffffffffffffffffffffffffffffffffff1673ffffffffffffffffffffffffffffffffffffffff16815260200190815260200160002060006101000a81548160ff0219169083151502179055508173ffffffffffffffffffffffffffffffffffffffff166114df6127f6565b73ffffffffffffffffffffffffffffffffffffffff167f17307eab39ab6107e8899845ad3d59bd9653f200f220920489ca2b5937696c31836040516115249190614363565b60405180910390a35050565b6060611643826040518060400160405280600681526020017f424f574c455200000000000000000000000000000000000000000000000000008152506010805480602002602001604051908101604052809291908181526020016000905b8282101561163a5783829060005260206000200180546115ad9061487f565b80601f01602080910402602001604051908101604052809291908181526020018280546115d99061487f565b80156116265780601f106115fb57610100808354040283529160200191611626565b820191906000526020600020905b81548152906001019060200180831161160957829003601f168201915b50505050508152602001906001019061158e565b50505050612c0f565b9050919050565b61165b6116556127f6565b836128b7565b61169a576040517f08c379a0000000000000000000000000000000000000000000000000000000008152600401611691906145a0565b60405180910390fd5b6116a684848484612d6a565b50505050565b60606117bf826040518060400160405280600a81526020017f504c415945525459504500000000000000000000000000000000000000000000815250600e805480602002602001604051908101604052809291908181526020016000905b828210156117b65783829060005260206000200180546117299061487f565b80601f01602080910402602001604051908101604052809291908181526020018280546117559061487f565b80156117a25780601f10611777576101008083540402835291602001916117a2565b820191906000526020600020905b81548152906001019060200180831161178557829003601f168201915b50505050508152602001906001019061170a565b50505050612c0f565b9050919050565b60606117d0613a32565b60405180610120016040528060fd815260200161521760fd913981600060138110611824577f4e487b7100000000000000000000000000000000000000000000000000000000600052603260045260246000fd5b6020020181905250611835836110e9565b8160016013811061186f577f4e487b7100000000000000000000000000000000000000000000000000000000600052603260045260246000fd5b60200201819052506040518060600160405280602881526020016151ef60289139816002601381106118ca577f4e487b7100000000000000000000000000000000000000000000000000000000600052603260045260246000fd5b60200201819052506118db83610fa5565b81600360138110611915577f4e487b7100000000000000000000000000000000000000000000000000000000600052603260045260246000fd5b60200201819052506040518060600160405280602881526020016150bb6028913981600460138110611970577f4e487b7100000000000000000000000000000000000000000000000000000000600052603260045260246000fd5b6020020181905250611981836116ac565b816005601381106119bb577f4e487b7100000000000000000000000000000000000000000000000000000000600052603260045260246000fd5b60200201819052506040518060600160405280602881526020016151356028913981600660138110611a16577f4e487b7100000000000000000000000000000000000000000000000000000000600052603260045260246000fd5b6020020181905250611a2783612402565b81600760138110611a61577f4e487b7100000000000000000000000000000000000000000000000000000000600052603260045260246000fd5b602002018190525060405180606001604052806029815260200161515d6029913981600860138110611abc577f4e487b7100000000000000000000000000000000000000000000000000000000600052603260045260246000fd5b6020020181905250611acd83611530565b81600960138110611b07577f4e487b7100000000000000000000000000000000000000000000000000000000600052603260045260246000fd5b602002018190525060405180606001604052806029815260200161510c6029913981600a60138110611b62577f4e487b7100000000000000000000000000000000000000000000000000000000600052603260045260246000fd5b6020020181905250611b7383611203565b81600b60138110611bad577f4e487b7100000000000000000000000000000000000000000000000000000000600052603260045260246000fd5b60200201819052506040518060600160405280602981526020016151866029913981600e60138110611c08577f4e487b7100000000000000000000000000000000000000000000000000000000600052603260045260246000fd5b6020020181905250611c19836122e8565b81600f60138110611c53577f4e487b7100000000000000000000000000000000000000000000000000000000600052603260045260246000fd5b60200201819052506040518060600160405280602981526020016150e36029913981601060138110611cae577f4e487b7100000000000000000000000000000000000000000000000000000000600052603260045260246000fd5b6020020181905250611cbf83610aab565b81601160138110611cf9577f4e487b7100000000000000000000000000000000000000000000000000000000600052603260045260246000fd5b60200201819052506040518060400160405280600d81526020017f3c2f746578743e3c2f7376673e0000000000000000000000000000000000000081525081601260138110611d71577f4e487b7100000000000000000000000000000000000000000000000000000000600052603260045260246000fd5b6020020181905250600081600060138110611db5577f4e487b7100000000000000000000000000000000000000000000000000000000600052603260045260246000fd5b602002015182600160138110611df4577f4e487b7100000000000000000000000000000000000000000000000000000000600052603260045260246000fd5b602002015183600260138110611e33577f4e487b7100000000000000000000000000000000000000000000000000000000600052603260045260246000fd5b602002015184600360138110611e72577f4e487b7100000000000000000000000000000000000000000000000000000000600052603260045260246000fd5b602002015185600460138110611eb1577f4e487b7100000000000000000000000000000000000000000000000000000000600052603260045260246000fd5b602002015186600560138110611ef0577f4e487b7100000000000000000000000000000000000000000000000000000000600052603260045260246000fd5b602002015187600660138110611f2f577f4e487b7100000000000000000000000000000000000000000000000000000000600052603260045260246000fd5b602002015188600760138110611f6e577f4e487b7100000000000000000000000000000000000000000000000000000000600052603260045260246000fd5b602002015189600860138110611fad577f4e487b7100000000000000000000000000000000000000000000000000000000600052603260045260246000fd5b6020020151604051602001611fca9998979695949392919061417d565b60405160208183030381529060405290508082600960138110612016577f4e487b7100000000000000000000000000000000000000000000000000000000600052603260045260246000fd5b602002015183600a60138110612055577f4e487b7100000000000000000000000000000000000000000000000000000000600052603260045260246000fd5b602002015184600b60138110612094577f4e487b7100000000000000000000000000000000000000000000000000000000600052603260045260246000fd5b602002015185600c601381106120d3577f4e487b7100000000000000000000000000000000000000000000000000000000600052603260045260246000fd5b602002015186600d60138110612112577f4e487b7100000000000000000000000000000000000000000000000000000000600052603260045260246000fd5b602002015187600e60138110612151577f4e487b7100000000000000000000000000000000000000000000000000000000600052603260045260246000fd5b602002015188600f60138110612190577f4e487b7100000000000000000000000000000000000000000000000000000000600052603260045260246000fd5b6020020151896010601381106121cf577f4e487b7100000000000000000000000000000000000000000000000000000000600052603260045260246000fd5b60200201518a60116013811061220e577f4e487b7100000000000000000000000000000000000000000000000000000000600052603260045260246000fd5b60200201518b60126013811061224d577f4e487b7100000000000000000000000000000000000000000000000000000000600052603260045260246000fd5b602002015160405160200161226c9b9a999897969594939291906141fc565b604051602081830303815290604052905060006122b961228b86612dc6565b61229484612f73565b6040516020016122a59291906142b7565b604051602081830303815290604052612f73565b9050806040516020016122cc9190614295565b6040516020818303038152906040529150819350505050919050565b60606123fb826040518060400160405280600981526020017f574f524c444355505300000000000000000000000000000000000000000000008152506012805480602002602001604051908101604052809291908181526020016000905b828210156123f25783829060005260206000200180546123659061487f565b80601f01602080910402602001604051908101604052809291908181526020018280546123919061487f565b80156123de5780601f106123b3576101008083540402835291602001916123de565b820191906000526020600020905b8154815290600101906020018083116123c157829003601f168201915b505050505081526020019060010190612346565b50505050612c0f565b9050919050565b6060612515826040518060400160405280600781526020017f424154534d414e00000000000000000000000000000000000000000000000000815250600f805480602002602001604051908101604052809291908181526020016000905b8282101561250c57838290600052602060002001805461247f9061487f565b80601f01602080910402602001604051908101604052809291908181526020018280546124ab9061487f565b80156124f85780601f106124cd576101008083540402835291602001916124f8565b820191906000526020600020905b8154815290600101906020018083116124db57829003601f168201915b505050505081526020019060010190612460565b50505050612c0f565b9050919050565b6000600560008473ffffffffffffffffffffffffffffffffffffffff1673ffffffffffffffffffffffffffffffffffffffff16815260200190815260200160002060008373ffffffffffffffffffffffffffffffffffffffff1673ffffffffffffffffffffffffffffffffffffffff16815260200190815260200160002060009054906101000a900460ff16905092915050565b6125b86127f6565b73ffffffffffffffffffffffffffffffffffffffff166125d66110bf565b73ffffffffffffffffffffffffffffffffffffffff161461262c576040517f08c379a000000000000000000000000000000000000000000000000000000000815260040161262390614520565b60405180910390fd5b600073ffffffffffffffffffffffffffffffffffffffff168173ffffffffffffffffffffffffffffffffffffffff16141561269c576040517f08c379a0000000000000000000000000000000000000000000000000000000008152600401612693906143e0565b60405180910390fd5b6126a581612ca4565b50565b60007f80ac58cd000000000000000000000000000000000000000000000000000000007bffffffffffffffffffffffffffffffffffffffffffffffffffffffff1916827bffffffffffffffffffffffffffffffffffffffffffffffffffffffff1916148061277357507f5b5e139f000000000000000000000000000000000000000000000000000000007bffffffffffffffffffffffffffffffffffffffffffffffffffffffff1916827bffffffffffffffffffffffffffffffffffffffffffffffffffffffff1916145b80612783575061278282613131565b5b9050919050565b60008073ffffffffffffffffffffffffffffffffffffffff166002600084815260200190815260200160002060009054906101000a900473ffffffffffffffffffffffffffffffffffffffff1673ffffffffffffffffffffffffffffffffffffffff1614159050919050565b600033905090565b816004600083815260200190815260200160002060006101000a81548173ffffffffffffffffffffffffffffffffffffffff021916908373ffffffffffffffffffffffffffffffffffffffff160217905550808273ffffffffffffffffffffffffffffffffffffffff1661287183610db3565b73ffffffffffffffffffffffffffffffffffffffff167f8c5be1e5ebec7d5bd14f71427d1e84f3dd0314c0f7b2291e5b200ac8c7c3b92560405160405180910390a45050565b60006128c28261278a565b612901576040517f08c379a00000000000000000000000000000000000000000000000000000000081526004016128f890614460565b60405180910390fd5b600061290c83610db3565b90508073ffffffffffffffffffffffffffffffffffffffff168473ffffffffffffffffffffffffffffffffffffffff16148061297b57508373ffffffffffffffffffffffffffffffffffffffff1661296384610742565b73ffffffffffffffffffffffffffffffffffffffff16145b8061298c575061298b818561251c565b5b91505092915050565b8273ffffffffffffffffffffffffffffffffffffffff166129b582610db3565b73ffffffffffffffffffffffffffffffffffffffff1614612a0b576040517f08c379a0000000000000000000000000000000000000000000000000000000008152600401612a0290614560565b60405180910390fd5b600073ffffffffffffffffffffffffffffffffffffffff168273ffffffffffffffffffffffffffffffffffffffff161415612a7b576040517f08c379a0000000000000000000000000000000000000000000000000000000008152600401612a7290614420565b60405180910390fd5b612a8683838361319b565b612a916000826127fe565b6001600360008573ffffffffffffffffffffffffffffffffffffffff1673ffffffffffffffffffffffffffffffffffffffff1681526020019081526020016000206000828254612ae19190614795565b925050819055506001600360008473ffffffffffffffffffffffffffffffffffffffff1673ffffffffffffffffffffffffffffffffffffffff1681526020019081526020016000206000828254612b3891906146b4565b92505081905550816002600083815260200190815260200160002060006101000a81548173ffffffffffffffffffffffffffffffffffffffff021916908373ffffffffffffffffffffffffffffffffffffffff160217905550808273ffffffffffffffffffffffffffffffffffffffff168473ffffffffffffffffffffffffffffffffffffffff167fddf252ad1be2c89b69c2b068fc378daa952ba7f163c4a11628f55a4df523b3ef60405160405180910390a4505050565b612c0b8282604051806020016040528060008152506132af565b5050565b60606000612c4584612c2087612dc6565b604051602001612c31929190614159565b60405160208183030381529060405261330a565b9050600083845183612c57919061492b565b81518110612c8e577f4e487b7100000000000000000000000000000000000000000000000000000000600052603260045260246000fd5b6020026020010151905080925050509392505050565b6000600b60009054906101000a900473ffffffffffffffffffffffffffffffffffffffff16905081600b60006101000a81548173ffffffffffffffffffffffffffffffffffffffff021916908373ffffffffffffffffffffffffffffffffffffffff1602179055508173ffffffffffffffffffffffffffffffffffffffff168173ffffffffffffffffffffffffffffffffffffffff167f8be0079c531659141344cd1fd0a4f28419497f9722a3daafe3b4186f6b6457e060405160405180910390a35050565b612d75848484612995565b612d818484848461333d565b612dc0576040517f08c379a0000000000000000000000000000000000000000000000000000000008152600401612db7906143c0565b60405180910390fd5b50505050565b60606000821415612e0e576040518060400160405280600181526020017f30000000000000000000000000000000000000000000000000000000000000008152509050612f6e565b600082905060005b60008214612e40578080612e29906148e2565b915050600a82612e39919061470a565b9150612e16565b60008167ffffffffffffffff811115612e82577f4e487b7100000000000000000000000000000000000000000000000000000000600052604160045260246000fd5b6040519080825280601f01601f191660200182016040528015612eb45781602001600182028036833780820191505090505b5090505b60008514612f6757600182612ecd9190614795565b9150600a85612edc919061492b565b6030612ee891906146b4565b60f81b818381518110612f24577f4e487b7100000000000000000000000000000000000000000000000000000000600052603260045260246000fd5b60200101907effffffffffffffffffffffffffffffffffffffffffffffffffffffffffffff1916908160001a905350600a85612f60919061470a565b9450612eb8565b8093505050505b919050565b60606000825190506000811415612f9c576040518060200160405280600081525091505061312c565b60006003600283612fad91906146b4565b612fb7919061470a565b6004612fc3919061473b565b90506000602082612fd491906146b4565b67ffffffffffffffff811115613013577f4e487b7100000000000000000000000000000000000000000000000000000000600052604160045260246000fd5b6040519080825280601f01601f1916602001820160405280156130455781602001600182028036833780820191505090505b50905060006040518060600160405280604081526020016151af604091399050600181016020830160005b868110156130e95760038101905062ffffff818a015116603f8160121c168401518060081b905060ff603f83600c1c1686015116810190508060081b905060ff603f8360061c1686015116810190508060081b905060ff603f831686015116810190508060e01b90508084526004840193505050613070565b50600386066001811461310357600281146131135761311e565b613d3d60f01b600283035261311e565b603d60f81b60018303525b508484525050819450505050505b919050565b60007f01ffc9a7000000000000000000000000000000000000000000000000000000007bffffffffffffffffffffffffffffffffffffffffffffffffffffffff1916827bffffffffffffffffffffffffffffffffffffffffffffffffffffffff1916149050919050565b6131a68383836134d4565b600073ffffffffffffffffffffffffffffffffffffffff168373ffffffffffffffffffffffffffffffffffffffff1614156131e9576131e4816134d9565b613228565b8173ffffffffffffffffffffffffffffffffffffffff168373ffffffffffffffffffffffffffffffffffffffff1614613227576132268382613522565b5b5b600073ffffffffffffffffffffffffffffffffffffffff168273ffffffffffffffffffffffffffffffffffffffff16141561326b576132668161368f565b6132aa565b8273ffffffffffffffffffffffffffffffffffffffff168273ffffffffffffffffffffffffffffffffffffffff16146132a9576132a882826137d2565b5b5b505050565b6132b98383613851565b6132c6600084848461333d565b613305576040517f08c379a00000000000000000000000000000000000000000000000000000000081526004016132fc906143c0565b60405180910390fd5b505050565b60008160405160200161331d9190614142565b6040516020818303038152906040528051906020012060001c9050919050565b600061335e8473ffffffffffffffffffffffffffffffffffffffff16613a1f565b156134c7578373ffffffffffffffffffffffffffffffffffffffff1663150b7a026133876127f6565b8786866040518563ffffffff1660e01b81526004016133a99493929190614317565b602060405180830381600087803b1580156133c357600080fd5b505af19250505080156133f457506040513d601f19601f820116820180604052508101906133f19190613cfb565b60015b613477573d8060008114613424576040519150601f19603f3d011682016040523d82523d6000602084013e613429565b606091505b5060008151141561346f576040517f08c379a0000000000000000000000000000000000000000000000000000000008152600401613466906143c0565b60405180910390fd5b805181602001fd5b63150b7a0260e01b7bffffffffffffffffffffffffffffffffffffffffffffffffffffffff1916817bffffffffffffffffffffffffffffffffffffffffffffffffffffffff1916149150506134cc565b600190505b949350505050565b505050565b6008805490506009600083815260200190815260200160002081905550600881908060018154018082558091505060019003906000526020600020016000909190919091505550565b6000600161352f84610e65565b6135399190614795565b905060006007600084815260200190815260200160002054905081811461361e576000600660008673ffffffffffffffffffffffffffffffffffffffff1673ffffffffffffffffffffffffffffffffffffffff168152602001908152602001600020600084815260200190815260200160002054905080600660008773ffffffffffffffffffffffffffffffffffffffff1673ffffffffffffffffffffffffffffffffffffffff168152602001908152602001600020600084815260200190815260200160002081905550816007600083815260200190815260200160002081905550505b6007600084815260200190815260200160002060009055600660008573ffffffffffffffffffffffffffffffffffffffff1673ffffffffffffffffffffffffffffffffffffffff16815260200190815260200160002060008381526020019081526020016000206000905550505050565b600060016008805490506136a39190614795565b90506000600960008481526020019081526020016000205490506000600883815481106136f9577f4e487b7100000000000000000000000000000000000000000000000000000000600052603260045260246000fd5b906000526020600020015490508060088381548110613741577f4e487b7100000000000000000000000000000000000000000000000000000000600052603260045260246000fd5b9060005260206000200181905550816009600083815260200190815260200160002081905550600960008581526020019081526020016000206000905560088054806137b6577f4e487b7100000000000000000000000000000000000000000000000000000000600052603160045260246000fd5b6001900381819060005260206000200160009055905550505050565b60006137dd83610e65565b905081600660008573ffffffffffffffffffffffffffffffffffffffff1673ffffffffffffffffffffffffffffffffffffffff168152602001908152602001600020600083815260200190815260200160002081905550806007600084815260200190815260200160002081905550505050565b600073ffffffffffffffffffffffffffffffffffffffff168273ffffffffffffffffffffffffffffffffffffffff1614156138c1576040517f08c379a00000000000000000000000000000000000000000000000000000000081526004016138b8906144e0565b60405180910390fd5b6138ca8161278a565b1561390a576040517f08c379a000000000000000000000000000000000000000000000000000000000815260040161390190614400565b60405180910390fd5b6139166000838361319b565b6001600360008473ffffffffffffffffffffffffffffffffffffffff1673ffffffffffffffffffffffffffffffffffffffff168152602001908152602001600020600082825461396691906146b4565b92505081905550816002600083815260200190815260200160002060006101000a81548173ffffffffffffffffffffffffffffffffffffffff021916908373ffffffffffffffffffffffffffffffffffffffff160217905550808273ffffffffffffffffffffffffffffffffffffffff16600073ffffffffffffffffffffffffffffffffffffffff167fddf252ad1be2c89b69c2b068fc378daa952ba7f163c4a11628f55a4df523b3ef60405160405180910390a45050565b600080823b905060008111915050919050565b6040518061026001604052806013905b6060815260200190600190039081613a425790505090565b6000613a6d613a6884614640565b61461b565b905082815260208101848484011115613a8557600080fd5b613a9084828561483d565b509392505050565b600081359050613aa78161505e565b92915050565b600081359050613abc81615075565b92915050565b600081359050613ad18161508c565b92915050565b600081519050613ae68161508c565b92915050565b600082601f830112613afd57600080fd5b8135613b0d848260208601613a5a565b91505092915050565b600081359050613b25816150a3565b92915050565b600060208284031215613b3d57600080fd5b6000613b4b84828501613a98565b91505092915050565b60008060408385031215613b6757600080fd5b6000613b7585828601613a98565b9250506020613b8685828601613a98565b9150509250929050565b600080600060608486031215613ba557600080fd5b6000613bb386828701613a98565b9350506020613bc486828701613a98565b9250506040613bd586828701613b16565b9150509250925092565b60008060008060808587031215613bf557600080fd5b6000613c0387828801613a98565b9450506020613c1487828801613a98565b9350506040613c2587828801613b16565b925050606085013567ffffffffffffffff811115613c4257600080fd5b613c4e87828801613aec565b91505092959194509250565b60008060408385031215613c6d57600080fd5b6000613c7b85828601613a98565b9250506020613c8c85828601613aad565b9150509250929050565b60008060408385031215613ca957600080fd5b6000613cb785828601613a98565b9250506020613cc885828601613b16565b9150509250929050565b600060208284031215613ce457600080fd5b6000613cf284828501613ac2565b91505092915050565b600060208284031215613d0d57600080fd5b6000613d1b84828501613ad7565b91505092915050565b600060208284031215613d3657600080fd5b6000613d4484828501613b16565b91505092915050565b613d56816147c9565b82525050565b613d65816147db565b82525050565b6000613d7682614671565b613d808185614687565b9350613d9081856020860161484c565b613d9981614a18565b840191505092915050565b6000613daf8261467c565b613db98185614698565b9350613dc981856020860161484c565b613dd281614a18565b840191505092915050565b6000613de88261467c565b613df281856146a9565b9350613e0281856020860161484c565b80840191505092915050565b6000613e1b602b83614698565b9150613e2682614a29565b604082019050919050565b6000613e3e603283614698565b9150613e4982614a78565b604082019050919050565b6000613e61602683614698565b9150613e6c82614ac7565b604082019050919050565b6000613e84601c83614698565b9150613e8f82614b16565b602082019050919050565b6000613ea7602483614698565b9150613eb282614b3f565b604082019050919050565b6000613eca601983614698565b9150613ed582614b8e565b602082019050919050565b6000613eed602c83614698565b9150613ef882614bb7565b604082019050919050565b6000613f10603883614698565b9150613f1b82614c06565b604082019050919050565b6000613f33602a83614698565b9150613f3e82614c55565b604082019050919050565b6000613f56602983614698565b9150613f6182614ca4565b604082019050919050565b6000613f796002836146a9565b9150613f8482614cf3565b600282019050919050565b6000613f9c602083614698565b9150613fa782614d1c565b602082019050919050565b6000613fbf602c83614698565b9150613fca82614d45565b604082019050919050565b6000613fe2602083614698565b9150613fed82614d94565b602082019050919050565b6000614005601083614698565b915061401082614dbd565b602082019050919050565b6000614028602983614698565b915061403382614de6565b604082019050919050565b600061404b602183614698565b915061405682614e35565b604082019050919050565b600061406e601d836146a9565b915061407982614e84565b601d82019050919050565b6000614091603183614698565b915061409c82614ead565b604082019050919050565b60006140b4602c83614698565b91506140bf82614efc565b604082019050919050565b60006140d7609b836146a9565b91506140e282614f4b565b609b82019050919050565b60006140fa601f83614698565b91506141058261500c565b602082019050919050565b600061411d6016836146a9565b915061412882615035565b601682019050919050565b61413c81614833565b82525050565b600061414e8284613ddd565b915081905092915050565b60006141658285613ddd565b91506141718284613ddd565b91508190509392505050565b6000614189828c613ddd565b9150614195828b613ddd565b91506141a1828a613ddd565b91506141ad8289613ddd565b91506141b98288613ddd565b91506141c58287613ddd565b91506141d18286613ddd565b91506141dd8285613ddd565b91506141e98284613ddd565b91508190509a9950505050505050505050565b6000614208828e613ddd565b9150614214828d613ddd565b9150614220828c613ddd565b915061422c828b613ddd565b9150614238828a613ddd565b91506142448289613ddd565b91506142508288613ddd565b915061425c8287613ddd565b91506142688286613ddd565b91506142748285613ddd565b91506142808284613ddd565b91508190509c9b505050505050505050505050565b60006142a082614061565b91506142ac8284613ddd565b915081905092915050565b60006142c282614110565b91506142ce8285613ddd565b91506142d9826140ca565b91506142e58284613ddd565b91506142f082613f6c565b91508190509392505050565b60006020820190506143116000830184613d4d565b92915050565b600060808201905061432c6000830187613d4d565b6143396020830186613d4d565b6143466040830185614133565b81810360608301526143588184613d6b565b905095945050505050565b60006020820190506143786000830184613d5c565b92915050565b600060208201905081810360008301526143988184613da4565b905092915050565b600060208201905081810360008301526143b981613e0e565b9050919050565b600060208201905081810360008301526143d981613e31565b9050919050565b600060208201905081810360008301526143f981613e54565b9050919050565b6000602082019050818103600083015261441981613e77565b9050919050565b6000602082019050818103600083015261443981613e9a565b9050919050565b6000602082019050818103600083015261445981613ebd565b9050919050565b6000602082019050818103600083015261447981613ee0565b9050919050565b6000602082019050818103600083015261449981613f03565b9050919050565b600060208201905081810360008301526144b981613f26565b9050919050565b600060208201905081810360008301526144d981613f49565b9050919050565b600060208201905081810360008301526144f981613f8f565b9050919050565b6000602082019050818103600083015261451981613fb2565b9050919050565b6000602082019050818103600083015261453981613fd5565b9050919050565b6000602082019050818103600083015261455981613ff8565b9050919050565b600060208201905081810360008301526145798161401b565b9050919050565b600060208201905081810360008301526145998161403e565b9050919050565b600060208201905081810360008301526145b981614084565b9050919050565b600060208201905081810360008301526145d9816140a7565b9050919050565b600060208201905081810360008301526145f9816140ed565b9050919050565b60006020820190506146156000830184614133565b92915050565b6000614625614636565b905061463182826148b1565b919050565b6000604051905090565b600067ffffffffffffffff82111561465b5761465a6149e9565b5b61466482614a18565b9050602081019050919050565b600081519050919050565b600081519050919050565b600082825260208201905092915050565b600082825260208201905092915050565b600081905092915050565b60006146bf82614833565b91506146ca83614833565b9250827fffffffffffffffffffffffffffffffffffffffffffffffffffffffffffffffff038211156146ff576146fe61495c565b5b828201905092915050565b600061471582614833565b915061472083614833565b9250826147305761472f61498b565b5b828204905092915050565b600061474682614833565b915061475183614833565b9250817fffffffffffffffffffffffffffffffffffffffffffffffffffffffffffffffff048311821515161561478a5761478961495c565b5b828202905092915050565b60006147a082614833565b91506147ab83614833565b9250828210156147be576147bd61495c565b5b828203905092915050565b60006147d482614813565b9050919050565b60008115159050919050565b60007fffffffff0000000000000000000000000000000000000000000000000000000082169050919050565b600073ffffffffffffffffffffffffffffffffffffffff82169050919050565b6000819050919050565b82818337600083830152505050565b60005b8381101561486a57808201518184015260208101905061484f565b83811115614879576000848401525b50505050565b6000600282049050600182168061489757607f821691505b602082108114156148ab576148aa6149ba565b5b50919050565b6148ba82614a18565b810181811067ffffffffffffffff821117156148d9576148d86149e9565b5b80604052505050565b60006148ed82614833565b91507fffffffffffffffffffffffffffffffffffffffffffffffffffffffffffffffff8214156149205761491f61495c565b5b600182019050919050565b600061493682614833565b915061494183614833565b9250826149515761495061498b565b5b828206905092915050565b7f4e487b7100000000000000000000000000000000000000000000000000000000600052601160045260246000fd5b7f4e487b7100000000000000000000000000000000000000000000000000000000600052601260045260246000fd5b7f4e487b7100000000000000000000000000000000000000000000000000000000600052602260045260246000fd5b7f4e487b7100000000000000000000000000000000000000000000000000000000600052604160045260246000fd5b6000601f19601f8301169050919050565b7f455243373231456e756d657261626c653a206f776e657220696e646578206f7560008201527f74206f6620626f756e6473000000000000000000000000000000000000000000602082015250565b7f4552433732313a207472616e7366657220746f206e6f6e20455243373231526560008201527f63656976657220696d706c656d656e7465720000000000000000000000000000602082015250565b7f4f776e61626c653a206e6577206f776e657220697320746865207a65726f206160008201527f6464726573730000000000000000000000000000000000000000000000000000602082015250565b7f4552433732313a20746f6b656e20616c7265616479206d696e74656400000000600082015250565b7f4552433732313a207472616e7366657220746f20746865207a65726f2061646460008201527f7265737300000000000000000000000000000000000000000000000000000000602082015250565b7f4552433732313a20617070726f766520746f2063616c6c657200000000000000600082015250565b7f4552433732313a206f70657261746f7220717565727920666f72206e6f6e657860008201527f697374656e7420746f6b656e0000000000000000000000000000000000000000602082015250565b7f4552433732313a20617070726f76652063616c6c6572206973206e6f74206f7760008201527f6e6572206e6f7220617070726f76656420666f7220616c6c0000000000000000602082015250565b7f4552433732313a2062616c616e636520717565727920666f7220746865207a6560008201527f726f206164647265737300000000000000000000000000000000000000000000602082015250565b7f4552433732313a206f776e657220717565727920666f72206e6f6e657869737460008201527f656e7420746f6b656e0000000000000000000000000000000000000000000000602082015250565b7f227d000000000000000000000000000000000000000000000000000000000000600082015250565b7f4552433732313a206d696e7420746f20746865207a65726f2061646472657373600082015250565b7f4552433732313a20617070726f76656420717565727920666f72206e6f6e657860008201527f697374656e7420746f6b656e0000000000000000000000000000000000000000602082015250565b7f4f776e61626c653a2063616c6c6572206973206e6f7420746865206f776e6572600082015250565b7f546f6b656e20494420696e76616c696400000000000000000000000000000000600082015250565b7f4552433732313a207472616e73666572206f6620746f6b656e2074686174206960008201527f73206e6f74206f776e0000000000000000000000000000000000000000000000602082015250565b7f4552433732313a20617070726f76616c20746f2063757272656e74206f776e6560008201527f7200000000000000000000000000000000000000000000000000000000000000602082015250565b7f646174613a6170706c69636174696f6e2f6a736f6e3b6261736536342c000000600082015250565b7f4552433732313a207472616e736665722063616c6c6572206973206e6f74206f60008201527f776e6572206e6f7220617070726f766564000000000000000000000000000000602082015250565b7f455243373231456e756d657261626c653a20676c6f62616c20696e646578206f60008201527f7574206f6620626f756e64730000000000000000000000000000000000000000602082015250565b7f222c20226465736372697074696f6e223a2022412044414f20666f722043726960008201527f636b6574206c6f766572732061726f756e642074686520676c6f62652e20416c60208201527f6c207468652074726561737572792077696c6c20626520636f6e74726f6c6c6560408201527f64206279207468652044414f206d656d62657273222c2022696d616765223a2060608201527f22646174613a696d6167652f7376672b786d6c3b6261736536342c0000000000608082015250565b7f5265656e7472616e637947756172643a207265656e7472616e742063616c6c00600082015250565b7f7b226e616d65223a2022437269636b657444414f202300000000000000000000600082015250565b615067816147c9565b811461507257600080fd5b50565b61507e816147db565b811461508957600080fd5b50565b615095816147e7565b81146150a057600080fd5b50565b6150ac81614833565b81146150b757600080fd5b5056fe3c2f746578743e3c7465787420783d2231302220793d2236302220636c6173733d2262617365223e3c2f746578743e3c7465787420783d2231302220793d223136302220636c6173733d2262617365223e3c2f746578743e3c7465787420783d2231302220793d223132302220636c6173733d2262617365223e3c2f746578743e3c7465787420783d2231302220793d2238302220636c6173733d2262617365223e3c2f746578743e3c7465787420783d2231302220793d223130302220636c6173733d2262617365223e3c2f746578743e3c7465787420783d2231302220793d223134302220636c6173733d2262617365223e4142434445464748494a4b4c4d4e4f505152535455565758595a6162636465666768696a6b6c6d6e6f707172737475767778797a303132333435363738392b2f3c2f746578743e3c7465787420783d2231302220793d2234302220636c6173733d2262617365223e3c73766720786d6c6e733d22687474703a2f2f7777772e77332e6f72672f323030302f73766722207072657365727665417370656374526174696f3d22784d696e594d696e206d656574222076696577426f783d223020302033353020333530223e3c7374796c653e2e62617365207b2066696c6c3a20626c61636b3b20666f6e742d66616d696c793a2073657269663b20666f6e742d73697a653a20313470783b207d3c2f7374796c653e3c726563742077696474683d223130302522206865696768743d2231303025222066696c6c3d22776869746522202f3e3c7465787420783d2231302220793d2232302220636c6173733d2262617365223ea2646970667358221220c030dfff458b8cdc1cc23a4a46436f9955c0c6f4342a05f58cdc1cdd1c57a2e364736f6c63430008040033",
    "linkReferences": {},
    "deployedLinkReferences": {}
}